:0300000002105398
:0C105300787FE4F6D8FD75813F020800AC
:1010230000000000000000000000000000000000BD
:0C103300000000000000000000000000B1
:080FFD00C2A58F807F057E0074
:10100500D3EF9400EE940040147D6E7C00ED1D70CE
:0D101500011CED4C70F7EF1F70E61E80E32C
:0110220022AB
:0A105F00C2A6120FFDD2A7C2A722FD
:0A106900D2A6120FFDD2A7C2A722E3
:10103F007F3812105F7F0C12105F7F0612105F7FD8
:04104F000102105F2B
:100F3700E4F53F75900FE590640F605D7F647E0078
:100F4700121005E590640F605075900FAF90EF2475
:100F5700F5601124FE6013146016240770167A00DA
:100F67007B0180107A007B02800A7A007B03800471
:100F77007A007B047590F0AF90EF2450600C24E06A
:100F8700600C24F0600C2470800F740480067408D1
:100F97008002740C2BFBE43AFAE53FC39432500D00
:100FA700E59064F06007121001053F80ECAF03AED7
:010FB7000237
:010FB8002216
:1008000078107C007D007BFF7A1079237E007F0CBE
:10081000120DDCE4F51CF51DF51EF51FF520752104
:1008200001F522F523F524F52578267C00FD7BFFD4
:100830007A10792FFE7F08120DDC782E7C007D0067
:100840007BFF7A1079377E007F08120DDC12103F93
:100850007F8012105F12100175900FE590640F6099
:10086000F7120F37EE6003020963EF14B410004073
:100870000302096390088275F003A4C58325F0C5BF
:1008800083730208B20208BE0208CA0208D6020830
:10089000E20208ED0208F802090302090E02091932
:1008A00002092402092F02093A02094502094F02EE
:1008B000095A7536317524007525010209637536AC
:1008C00032752400752502020963753633752400DC
:1008D00075250302096375362B751C00751D010211
:1008E00009637536347524007525048076753635B0
:1008F000752400752505806B7536367524007525C1
:1009000006806075362D751C00751D028055753684
:1009100037752400752507804A75363875240075AB
:100920002508803F75363975240075250980347592
:10093000362A751C00751D03802975364375220003
:10094000752301801E753630E4F524F52580147575
:10095000363D752200752302800975362F751C00FF
:10096000751D04AF36121069E52364024522600349
:10097000020BCBE52164034520701285340E8535CA
:100980000F853234853335850E32850F33E521648A
:10099000044520701285340E85350F85303485313D
:1009A00035850E30850F31E521640545207024859D
:1009B000340E85350F852E34852F35850E2E850F07
:1009C0002F85320E85330F853032853133850E30D9
:1009D000850F31AE2AAF2B7C007D0A120E02E52D69
:1009E0002FFBE52C3EFAAE28AF297D64120E02EFF4
:1009F0002BFBEE3AFAAE26AF277C037DE8120E02FF
:100A0000EF2BF50BEE3AF50AAE32AF337C007D0AE0
:100A1000120E02E5352FFBE5343EFAAE30AF317DE4
:100A200064120E02EF2BFBEE3AFAAE2EAF2F7C03D0
:100A30007DE8120E02EF2BFFEE3AAD07FCE51E70CB
:100A40003DE51F24FE601614602014602624037008
:100A50002DE50B2DF50DE50A3CF50C8021C3E50BCA
:100A60009DF50DE50A9CF50C8014AE0AAF0B120E35
:100A7000028007AE0AAF0B120E148E0C8F0DAE0C57
:100A8000AF0DE4FCFD7BA07A867901F8120FB9E482
:100A90007B0AFAF9F8120FB9AE02AF038E108F116C
:100AA000AE0CAF0D7C277D10120E147C007D0A1257
:100AB0000E148C128D13AE0CAF0D7C037DE8120E5C
:100AC000147C007D0A120E148C148D15AE0CAF0D23
:100AD0007C007D64120E147C007D0A120E148C16AC
:100AE0008D17AE0CAF0D7C007D0A120E147C007DBC
:100AF0000A120E148C188D19AE0CAF0D7C007D0AF5
:100B0000120E148C1A8D1BE4FFFEEF25E02410F862
:100B1000E6FC08E6FDEC7075EDB40A00506F900B32
:100B200025F8282873020B8B020B43020B4B020B98
:100B300053020B5B020B63020B6B020B73020B7B0A
:100B4000020B8374372FF87631804874372FF8768C
:100B500032804074372FF87633803874372FF87628
:100B600034803074372FF87635802874372FF87634
:100B700036802074372FF87637801874372FF87640
:100B800038801074372FF876398008800074372F3A
:100B9000F876300FBF00010EEF64084E6003020BC1
:100BA0000A7FC012105FE4F508F50974372509F8CB
:100BB000E6FF1210690509E50970020508C39406ED
:100BC000E508940040E5E4F522F523E51D451C7099
:100BD00017C37404952125E02426F8A62408A62529
:100BE0000521E52170020520E51D6405451C7017EF
:100BF000C37404952125E0242EF8A62408A6250513
:100C000021E52170020520E51D6401451C6018E501
:100C10001D6402451C6010E51D6403451C6008E569
:100C20001D6404451C7072E5216403452070128523
:100C30002C0E852D0F852A2C852B2D850E2A850FB0
:100C40002BE521640445207012852C0E852D0F851F
:100C5000282C85292D850E28850F29E52164054539
:100C6000207024852C0E852D0F85262C85272D851B
:100C70000E26850F27852A0E852B0F85282A852984
:100C80002B850E28850F29851C1E851D1F751C00B0
:100C9000751D05752000752101E52364014522605D
:100CA0000302085812103F7F8012105FE4F522F50E
:100CB00023F508F50974372509F876300509E509A3
:100CC000700205086408450870EBE4F508F509AF03
:100CD00009EF25E02426F8E4F608F6EF25E0242EB7
:100CE000F8E4F608F60509E5097002050864074509
:100CF0000870DCE4F51CF51DF51EF51FF5207521C7
:0C0D000001F522F523F524F52502085822
:100D0C00E709F608DFFA8046E709F208DFFA803EC9
:100D1C0088828C83E709F0A3DFFA8032E309F608B6
:100D2C00DFFA8078E309F208DFFA807088828C831E
:100D3C00E309F0A3DFFA806489828A83E0A3F608D2
:100D4C00DFFA805889828A83E0A3F208DFFA804CAC
:100D5C0080D280FA80C680D4806980F28033801083
:100D6C0080A680EA809A80A880DA80E280CA8033EC
:100D7C0089828A83ECFAE493A3C8C582C8CCC58364
:100D8C00CCF0A3C8C582C8CCC583CCDFE9DEE78034
:100D9C000D89828A83E493A3F608DFF9ECFAA9F0B3
:100DAC00EDFB2289828A83ECFAE0A3C8C582C8CC09
:100DBC00C583CCF0A3C8C582C8CCC583CCDFEADE22
:100DCC00E880DB89828A83E493A3F208DFF980CC84
:100DDC0088F0EF60010E4E60C388F0ED2402B4047D
:100DEC000050B9F582EB2402B4040050AF23234524
:060DFC008223900D5C73E0
:100E0200EF8DF0A4A8F0CF8CF0A428CE8DF0A42E04
:020E1200FE22BE
:100E1400BC000BBE0029EF8DF084FFADF022E4CCC2
:100E2400F875F008EF2FFFEE33FEEC33FCEE9DEC8B
:100E3400984005FCEE9DFE0FD5F0E9E4CEFD22EDD1
:100E4400F8F5F0EE8420D21CFEADF075F008EF2F1B
:100E5400FFED33FD4007985006D5F0F222C398FD0C
:050E64000FD5F0EA22A9
:100FB900C2D5E830E70FB2D5E4C39BFBE49AFAE463
:100FC90099F9E498F8EC30E717B2D5120FEF120E41
:100FD900A5E4C39BFBE49AFAE499F9E498F8800341
:100FE900120EA530D50DE4C39FFFE49EFEE49DFDDE
:040FF900E49CFC2256
:100E690075F008758200EF2FFFEE33FECD33CDCC40
:100E790033CCC58233C5829BED9AEC99E5829840C3
:100E89000CF582EE9BFEED9AFDEC99FC0FD5F0D6A0
:100E9900E4CEFBE4CDFAE4CCF9A88222B800C1B9CA
:100EA9000059BA002DEC8BF084CFCECDFCE5F0CB08
:100EB900F97818EF2FFFEE33FEED33FDEC33FCEB41
:100EC90033FB10D703994004EB99FB0FD8E5E4F9FC
:100ED900FA227818EF2FFFEE33FEED33FDEC33FCE9
:100EE900C933C910D7059BE99A4007EC9BFCE99ADD
:100EF900F90FD8E0E4C9FAE4CCFB2275F010EF2F22
:100F0900FFEE33FEED33FDCC33CCC833C810D70721
:100F19009BEC9AE899400AED9BFDEC9AFCE899F85C
:0E0F29000FD5F0DAE4CDFBE4CCFAE4C8F922EF
:00000001FF
